{
  "contractName": "pallgreeContract",
  "abi": [
    {
      "inputs": [],
      "stateMutability": "nonpayable",
      "type": "constructor"
    },
    {
      "anonymous": false,
      "inputs": [
        {
          "indexed": true,
          "internalType": "address",
          "name": "owner",
          "type": "address"
        },
        {
          "indexed": true,
          "internalType": "address",
          "name": "spender",
          "type": "address"
        },
        {
          "indexed": false,
          "internalType": "uint256",
          "name": "value",
          "type": "uint256"
        }
      ],
      "name": "Approval",
      "type": "event"
    },
    {
      "anonymous": false,
      "inputs": [
        {
          "indexed": true,
          "internalType": "address",
          "name": "from",
          "type": "address"
        },
        {
          "indexed": true,
          "internalType": "address",
          "name": "to",
          "type": "address"
        },
        {
          "indexed": false,
          "internalType": "uint256",
          "name": "value",
          "type": "uint256"
        }
      ],
      "name": "Transfer",
      "type": "event"
    },
    {
      "inputs": [
        {
          "internalType": "address",
          "name": "",
          "type": "address"
        },
        {
          "internalType": "address",
          "name": "",
          "type": "address"
        }
      ],
      "name": "allowance",
      "outputs": [
        {
          "internalType": "uint256",
          "name": "",
          "type": "uint256"
        }
      ],
      "stateMutability": "view",
      "type": "function"
    },
    {
      "inputs": [
        {
          "internalType": "address",
          "name": "",
          "type": "address"
        }
      ],
      "name": "balances",
      "outputs": [
        {
          "internalType": "uint256",
          "name": "",
          "type": "uint256"
        }
      ],
      "stateMutability": "view",
      "type": "function"
    },
    {
      "inputs": [],
      "name": "decimal",
      "outputs": [
        {
          "internalType": "uint256",
          "name": "",
          "type": "uint256"
        }
      ],
      "stateMutability": "view",
      "type": "function"
    },
    {
      "inputs": [],
      "name": "name",
      "outputs": [
        {
          "internalType": "string",
          "name": "",
          "type": "string"
        }
      ],
      "stateMutability": "view",
      "type": "function"
    },
    {
      "inputs": [],
      "name": "symbol",
      "outputs": [
        {
          "internalType": "string",
          "name": "",
          "type": "string"
        }
      ],
      "stateMutability": "view",
      "type": "function"
    },
    {
      "inputs": [],
      "name": "totalSupply",
      "outputs": [
        {
          "internalType": "uint256",
          "name": "",
          "type": "uint256"
        }
      ],
      "stateMutability": "view",
      "type": "function"
    },
    {
      "inputs": [
        {
          "internalType": "address",
          "name": "owner",
          "type": "address"
        }
      ],
      "name": "balanceOf",
      "outputs": [
        {
          "internalType": "uint256",
          "name": "",
          "type": "uint256"
        }
      ],
      "stateMutability": "view",
      "type": "function"
    },
    {
      "inputs": [
        {
          "internalType": "address",
          "name": "to",
          "type": "address"
        },
        {
          "internalType": "uint256",
          "name": "value",
          "type": "uint256"
        }
      ],
      "name": "transfer",
      "outputs": [
        {
          "internalType": "bool",
          "name": "",
          "type": "bool"
        }
      ],
      "stateMutability": "nonpayable",
      "type": "function"
    },
    {
      "inputs": [
        {
          "internalType": "address",
          "name": "from",
          "type": "address"
        },
        {
          "internalType": "address",
          "name": "to",
          "type": "address"
        },
        {
          "internalType": "uint256",
          "name": "value",
          "type": "uint256"
        }
      ],
      "name": "transferFrom",
      "outputs": [
        {
          "internalType": "bool",
          "name": "",
          "type": "bool"
        }
      ],
      "stateMutability": "nonpayable",
      "type": "function"
    },
    {
      "inputs": [
        {
          "internalType": "address",
          "name": "spender",
          "type": "address"
        },
        {
          "internalType": "uint256",
          "name": "value",
          "type": "uint256"
        }
      ],
      "name": "approve",
      "outputs": [
        {
          "internalType": "bool",
          "name": "",
          "type": "bool"
        }
      ],
      "stateMutability": "nonpayable",
      "type": "function"
    }
  ],
  "bytecode": "0x6080604052620f42406002556040518060400160405280600e81526020017f70616c6c6772656520746f6b656e000000000000000000000000000000000000815250600390805190602001906200005892919062000105565b506040518060400160405280600381526020017f504752000000000000000000000000000000000000000000000000000000000081525060049080519060200190620000a692919062000105565b506003600555348015620000b957600080fd5b506002546000803373ffffffffffffffffffffffffffffffffffffffff1673ffffffffffffffffffffffffffffffffffffffff1681526020019081526020016000208190555062000219565b8280546200011390620001e4565b90600052602060002090601f01602090048101928262000137576000855562000183565b82601f106200015257805160ff191683800117855562000183565b8280016001018555821562000183579182015b828111156200018257825182559160200191906001019062000165565b5b50905062000192919062000196565b5090565b5b80821115620001b157600081600090555060010162000197565b5090565b7f4e487b7100000000000000000000000000000000000000000000000000000000600052602260045260246000fd5b60006002820490506001821680620001fd57607f821691505b602082108103620002135762000212620001b5565b5b50919050565b610d7780620002296000396000f3fe608060405234801561001057600080fd5b506004361061009e5760003560e01c806370a082311161006657806370a082311461016f57806376809ce31461019f57806395d89b41146101bd578063a9059cbb146101db578063dd62ed3e1461020b5761009e565b806306fdde03146100a3578063095ea7b3146100c157806318160ddd146100f157806323b872dd1461010f57806327e235e31461013f575b600080fd5b6100ab61023b565b6040516100b89190610935565b60405180910390f35b6100db60048036038101906100d691906109f0565b6102c9565b6040516100e89190610a4b565b60405180910390f35b6100f96103bb565b6040516101069190610a75565b60405180910390f35b61012960048036038101906101249190610a90565b6103c1565b6040516101369190610a4b565b60405180910390f35b61015960048036038101906101549190610ae3565b6105e7565b6040516101669190610a75565b60405180910390f35b61018960048036038101906101849190610ae3565b6105ff565b6040516101969190610a75565b60405180910390f35b6101a7610647565b6040516101b49190610a75565b60405180910390f35b6101c561064d565b6040516101d29190610935565b60405180910390f35b6101f560048036038101906101f091906109f0565b6106db565b6040516102029190610a4b565b60405180910390f35b61022560048036038101906102209190610b10565b610877565b6040516102329190610a75565b60405180910390f35b6003805461024890610b7f565b80601f016020809104026020016040519081016040528092919081815260200182805461027490610b7f565b80156102c15780601f10610296576101008083540402835291602001916102c1565b820191906000526020600020905b8154815290600101906020018083116102a457829003601f168201915b505050505081565b600081600160003373ffffffffffffffffffffffffffffffffffffffff1673ffffffffffffffffffffffffffffffffffffffff16815260200190815260200160002060008573ffffffffffffffffffffffffffffffffffffffff1673ffffffffffffffffffffffffffffffffffffffff168152602001908152602001600020819055508273ffffffffffffffffffffffffffffffffffffffff163373ffffffffffffffffffffffffffffffffffffffff167f8c5be1e5ebec7d5bd14f71427d1e84f3dd0314c0f7b2291e5b200ac8c7c3b925846040516103a99190610a75565b60405180910390a36001905092915050565b60025481565b6000816103cd856105ff565b101561040e576040517f08c379a000000000000000000000000000000000000000000000000000000000815260040161040590610bfc565b60405180910390fd5b81600160008673ffffffffffffffffffffffffffffffffffffffff1673ffffffffffffffffffffffffffffffffffffffff16815260200190815260200160002060003373ffffffffffffffffffffffffffffffffffffffff1673ffffffffffffffffffffffffffffffffffffffff1681526020019081526020016000205410156104cd576040517f08c379a00000000000000000000000000000000000000000000000000000000081526004016104c490610c68565b60405180910390fd5b816000808573ffffffffffffffffffffffffffffffffffffffff1673ffffffffffffffffffffffffffffffffffffffff168152602001908152602001600020600082825461051b9190610cb7565b92505081905550816000808673ffffffffffffffffffffffffffffffffffffffff1673ffffffffffffffffffffffffffffffffffffffff16815260200190815260200160002060008282546105709190610d0d565b925050819055508273ffffffffffffffffffffffffffffffffffffffff168473ffffffffffffffffffffffffffffffffffffffff167fddf252ad1be2c89b69c2b068fc378daa952ba7f163c4a11628f55a4df523b3ef846040516105d49190610a75565b60405180910390a3600190509392505050565b60006020528060005260406000206000915090505481565b60008060008373ffffffffffffffffffffffffffffffffffffffff1673ffffffffffffffffffffffffffffffffffffffff168152602001908152602001600020549050919050565b60055481565b6004805461065a90610b7f565b80601f016020809104026020016040519081016040528092919081815260200182805461068690610b7f565b80156106d35780601f106106a8576101008083540402835291602001916106d3565b820191906000526020600020905b8154815290600101906020018083116106b657829003601f168201915b505050505081565b6000816000803373ffffffffffffffffffffffffffffffffffffffff1673ffffffffffffffffffffffffffffffffffffffff16815260200190815260200160002054101561075e576040517f08c379a000000000000000000000000000000000000000000000000000000000815260040161075590610bfc565b60405180910390fd5b816000808573ffffffffffffffffffffffffffffffffffffffff1673ffffffffffffffffffffffffffffffffffffffff16815260200190815260200160002060008282546107ac9190610cb7565b92505081905550816000803373ffffffffffffffffffffffffffffffffffffffff1673ffffffffffffffffffffffffffffffffffffffff16815260200190815260200160002060008282546108019190610d0d565b925050819055508273ffffffffffffffffffffffffffffffffffffffff163373ffffffffffffffffffffffffffffffffffffffff167fddf252ad1be2c89b69c2b068fc378daa952ba7f163c4a11628f55a4df523b3ef846040516108659190610a75565b60405180910390a36001905092915050565b6001602052816000526040600020602052806000526040600020600091509150505481565b600081519050919050565b600082825260208201905092915050565b60005b838110156108d65780820151818401526020810190506108bb565b838111156108e5576000848401525b50505050565b6000601f19601f8301169050919050565b60006109078261089c565b61091181856108a7565b93506109218185602086016108b8565b61092a816108eb565b840191505092915050565b6000602082019050818103600083015261094f81846108fc565b905092915050565b600080fd5b600073ffffffffffffffffffffffffffffffffffffffff82169050919050565b60006109878261095c565b9050919050565b6109978161097c565b81146109a257600080fd5b50565b6000813590506109b48161098e565b92915050565b6000819050919050565b6109cd816109ba565b81146109d857600080fd5b50565b6000813590506109ea816109c4565b92915050565b60008060408385031215610a0757610a06610957565b5b6000610a15858286016109a5565b9250506020610a26858286016109db565b9150509250929050565b60008115159050919050565b610a4581610a30565b82525050565b6000602082019050610a606000830184610a3c565b92915050565b610a6f816109ba565b82525050565b6000602082019050610a8a6000830184610a66565b92915050565b600080600060608486031215610aa957610aa8610957565b5b6000610ab7868287016109a5565b9350506020610ac8868287016109a5565b9250506040610ad9868287016109db565b9150509250925092565b600060208284031215610af957610af8610957565b5b6000610b07848285016109a5565b91505092915050565b60008060408385031215610b2757610b26610957565b5b6000610b35858286016109a5565b9250506020610b46858286016109a5565b9150509250929050565b7f4e487b7100000000000000000000000000000000000000000000000000000000600052602260045260246000fd5b60006002820490506001821680610b9757607f821691505b602082108103610baa57610ba9610b50565b5b50919050565b7f6e6f7420656e6f7567687420746f6b656e000000000000000000000000000000600082015250565b6000610be66011836108a7565b9150610bf182610bb0565b602082019050919050565b60006020820190508181036000830152610c1581610bd9565b9050919050565b7f6e6f7420656e6f7567687420746f6b656e20616c6c6f77657200000000000000600082015250565b6000610c526019836108a7565b9150610c5d82610c1c565b602082019050919050565b60006020820190508181036000830152610c8181610c45565b9050919050565b7f4e487b7100000000000000000000000000000000000000000000000000000000600052601160045260246000fd5b6000610cc2826109ba565b9150610ccd836109ba565b9250827fffffffffffffffffffffffffffffffffffffffffffffffffffffffffffffffff03821115610d0257610d01610c88565b5b828201905092915050565b6000610d18826109ba565b9150610d23836109ba565b925082821015610d3657610d35610c88565b5b82820390509291505056fea26469706673582212205cbeb6eed275c3a1e81205eb37adf75e0d667cd947a6fbe311a61796eba73e0864736f6c634300080d0033",
  "immutableReferences": {},
  "source": "pragma solidity >= 0.7.0 <0.9.0;\n\ncontract pallgreeContract{\n\n\tmapping ( address  => uint) public balances;\n\tmapping ( address => mapping(address=>uint)) public allowance;\n\t  \n\tuint public totalSupply =1000 * 10 ** 3;\n\tstring public name = \"pallgree token\";\n\tstring public symbol= \"PGR\";\n\tuint public decimal =3;\n\n\tevent Transfer(address indexed from,address indexed to,uint value);\n\tevent Approval(address indexed owner,address indexed spender,uint value);\n\n\tconstructor(){\n\t\tbalances[msg.sender] =totalSupply;\n\n\t}\n\n\tfunction balanceOf(address owner) public view returns(uint){\n\t\treturn balances[owner];\n\t}\n\n\tfunction transfer(address to,uint value) public returns(bool) {\n\t\trequire(balances[msg.sender] >= value, \"not enought token\");\n\t\tbalances[to] +=value;\n\t\tbalances[msg.sender] -=value;\n\t\temit Transfer(msg.sender,to,value);\n\t\treturn true;\n\n\t}\n\n\tfunction transferFrom(address from,address to,uint value) public returns(bool){\n\t\trequire(balanceOf(from) >= value ,\"not enought token\");\n\t\trequire (allowance[from][msg.sender] >= value , \"not enought token allower\");\n\t\tbalances[to] +=value;\n\t\tbalances[from] -=value;\n\n\t\temit Transfer(from,to ,value);\n        return true;\n\n\t}\n\n\tfunction approve(address spender ,uint value) public returns(bool){\n\t\tallowance[msg.sender][spender] =value;\n\n\t\temit Approval(msg.sender,spender,value);\n\t\treturn true;\n\n\t} \n\n\n\n\n}",
  "sourcePath": "/Users/pallgree/Desktop/Dev/simpleContect/contracts/contract.sol",
  "compiler": {
    "name": "solc",
    "version": "0.8.13+commit.abaa5c0e.Emscripten.clang"
  },
  "schemaVersion": "3.4.3",
  "updatedAt": "2022-03-28T15:18:28.916Z",
  "devdoc": {
    "kind": "dev",
    "methods": {},
    "version": 1
  },
  "userdoc": {
    "kind": "user",
    "methods": {},
    "version": 1
  }
}